:020000040800F2
:1000000020050020253800083D3800084138000848
:1000100045380008493800084D3800080000000045
:10002000000000000000000000000000513800083F
:10003000553800080000000059380008C136000893
:100040005D38000861380008653800086938000824
:100050006D380008713800087538000879380008D4
:100060007D38000881380008853800088938000884
:100070008D38000891380008953800089938000834
:100080009D380008A1380008A5380008CF360008C0
:10009000D1360008A9380008D9360008AD38000864
:1000A000B1380008B5380008B9380008BD38000874
:1000B000C1380008C5380008C9380008CD38000824
:1000C000D1380008D5380008D9380008DD380008D4
:1000D000E1380008E5380008E9380008ED38000884
:1000E000E1360008F1380008F5380008F938000852
:1000F000FD380008013900080539000809390008F1
:100100000D3900081139000815390008193900089F
:100110001D39000821390008DB36000825390008A0
:10012000293900082D39000831390008353900080F
:10013000393900083D3900084139000845390008BF
:10014000493900084D39000851390008553900086F
:10015000593900085D39000861390008653900081F
:10016000693900086D3900087139000875390008CF
:10017000793900087D390008813900080000000045
:10018000853900088939000840F0200070472DE9C2
:10019000F14FB0B0924604910DF142013A9A2B9181
:1001A00099464A7000200AE01AF8011B0498309A18
:1001B00090470028049000F031860D98401C0D9067
:1001C0009AF8000050B12528EED1002100220791B5
:1001D000089209910A920B910C9204E00D9800F09C
:1001E0001FBE41F001011AF8010F2028F9D0232881
:1001F0000CD02B2804D02D2805D0302809D00BE0B6
:1002000041F00201EFE741F00401ECE741F00801A1
:10021000E9E741F01001E6E72A280FD1D9F80020DC
:1002200052F8040BC9F8002000280F9003D5404273
:100230000F9041F004010AF1010A14E00F92DFF877
:10024000E83B0AE00F98984205DA00EB800402EBE5
:100250004402303A0F920AF1010A9AF80020A2F102
:1002600030000A28EED39AF800002E2803D04FF071
:10027000FF320E9229E01AF8010F2A2809D1D9F885
:10028000000050F8042BC9F800000E920AF1010A90
:100290001BE02D280CBF0AF1010A002000220E925B
:1002A000DFF8844B0BE040B90E9AA24205DA02EB6C
:1002B000820503EB4503303B0E930AF1010A9AF8DD
:1002C0000030A3F130020A2AEDD3ADF840100FF64A
:1002D0005C309AF8001000F0C1FE08B11AF8010B6A
:1002E0008DF842009DF84200682805D19AF8000078
:1002F00068280CD1622106E06C2804BF9AF800003F
:100300006C2804D171218DF842100AF1010A12A85B
:1003100006901AF801BBBBF125012CD01C3900F066
:100320009481091F022940F29081133900F0A884BA
:10033000093900F08A81891E00F03D85491E00F0D0
:10034000EA84491E022940F28081091F00F0E384FB
:10035000491F00F0EF80491E00F09284491E00F012
:10036000D780C91E0CD0891E00F08A84C91E00F0F7
:10037000878400F02BBD01220792252100F023BDC8
:10038000D9F8000050F8044BC9F80000002C05947F
:1003900040F0AB802B994878002800F0A1804FF006
:1003A000FF340FF6902000F069FE201A40F03685E9
:1003B00000F018BD01236A4602A9304600F0FEFD98
:1003C000002840F02B856D1EF4D13096079D12AFAA
:1003D00075B1309E17F8011B0498B04700280490AF
:1003E00000F01C850D98401C6D1E0D90F2D13096CA
:1003F0000A9D3021002D8DF800100CDD309E012368
:100400006A4602A9304600F0D9FD002840F0068572
:100410006D1EF4D13096059F089D75B1309E17F87A
:10042000011B0498B0470028049000F0F7840D9851
:10043000401C6D1E0D90F2D130960B9D3021002D89
:100440008DF800100CDD309E01236A4602A930466B
:1004500000F0B4FD002840F0E1846D1EF4D1309628
:1004600005980899099D471875B1309E17F8011B2A
:100470000498B0470028049000F0D0840D98401CE8
:100480006D1E0D90F2D130960C9D3021002D8DF80F
:1004900000100CDD309E01236A4602A9304600F0B0
:1004A0008DFD002840F0BA846D1EF4D130969DF881
:1004B000400041077FF584AE2020002C8DF800001D
:1004C0007FF77EAE309D01236A4602A9284600F0E0
:1004D00075FD002840F0A284641EF4D130956FE6CB
:1004E0000FF63830059000F07DBC0E9D002D04D530
:1004F000204600F0E3FD044607E02A46204600F0CF
:10050000E7FD002814BF041B2C46089400F06ABCC9
:10051000D9F8001051F8040BC9F8001020F00004BD
:10052000002121F0FF35CDE9024512AB059378217A
:1005300000F03DBC2B99487820B14FF0FF340FF606
:10054000AC2030E79DF84200622860D0682817D0C0
:100550006A283FD06C2806D0712847D074282CD048
:100560007A281DD062E0D9F8001051F8040BC9F8C0
:100570000010002866D14FF0FF340FF6882012E7F4
:10058000D9F8001051F8040BC9F8001020B94FF049
:10059000FF340FF6702006E70D99018000F022BCB1
:1005A000D9F8001051F8040BC9F80010002849D1FF
:1005B0004FF0FF340FF64C20F5E6D9F8001051F853
:1005C000040BC9F8001000283CD14FF0FF340FF69F
:1005D0003420E8E6D9F8001051F8040BC9F80010EF
:1005E00080B94FF0FF340FF61C20DCE6D9F800107C
:1005F00051F8040BC9F8001020B94FF0FF340FF682
:100600000420D0E60D9AD317C0E90023EAE3D9F815
:10061000001051F8040BC9F8001020B94FF0FF3456
:100620000FF6E010BFE60D990170DBE3D9F800107A
:1006300051F8040BC9F8001020B94FF0FF340FF641
:10064000C410B0E60D990160CCE39DF842004C283F
:1006500007BFD9F80010CB1DD9F80000C31D23F047
:100660000703C9F80030D3E900010833C9F80030A6
:10067000CDE90201C80F02D007982D210AE0BDF88C
:100680004000810702D507982B2103E0C00705D55C
:100690000798202112AB1954401C079012A8079903
:1006A000DDE9024543184BF020006128059321AE97
:1006B0000BD00E98002802D506200E9005E001BF51
:1006C0004BF02000672801210E91DDE902014F0067
:1006D0007F1517F1010F0DD108030BD0ABF16102AB
:1006E00003201A2A089002D20FF634110FE00FF6F9
:1006F00034110CE017F1010F0ED109030CD1ABF14D
:10070000610203201A2A08901CD30FF6201103223D
:10071000184600F009FD65E3DDE902016A4600F0D4
:1007200057FDCDE902014BF02000612811D1059859
:1007300030210170821C0592BBF1610F0CBF782142
:10074000582102E00FF6E001E1E741700798801CB4
:100750000790DDE9020120F0000231F0004308BFFC
:10076000002A02D10025002445E14BF02008B8F111
:10077000610F40F095800E98002847BF212101911C
:10078000401C0190019F7F1C204629460022002327
:10079000DDE9024500F054FD38BF85F000450099C1
:1007A0008DF88420091F002F00910DF1850034DDA4
:1007B0000646204629460022002300F05BFD2BD28E
:1007C0001C2200F071FD04460D4600F00BFEFF1FD9
:1007D000002F804609DD00F021FE02460B46204630
:1007E000294600F0E3FE04460D46F01D0721B8F14E
:1007F000000F0CDD491E5EBF08F00F0200F8012D4E
:100800004FEA2818F3D502E0002200F8012D491E16
:10081000FAD5C61D002FCCDC30460DF18501401AFB
:1008200001990DF1850605468842C8BF0D46002D89
:100830002FD4854206DA0DF18500415D0829A8BF55
:100840000F2000DA0020294621AA0A4400E06D1E8C
:1008500012F80139491E8342F9D00F2804D10DF155
:100860008500425C521C4254002904D50098001DAA
:1008700021AE6D1C0090681E0BD431180A783032FE
:10088000D3B23A2BA4BF5A443A3A401E01F8012988
:10089000F4D50E98002840F1AD80691E0E91A9E0B4
:1008A0000099DFF8082747F29750414391FBF2F295
:1008B000009225F00045C2F10702002A04DD20461F
:1008C000294600F04FFB0BE052420020DFF8E01613
:1008D00000F048FB02460B462046294600F0D8FEB1
:1008E00004460D46B8F1660F06BF009F0A3706277B
:1008F0000E983F18142FC8BF142730208DF884009D
:100900000DF1850000E03046002F35DD064620461B
:10091000294600F0E1FF01460A4606F108030420DB
:100920000A26B2FBF6F606EB860EA2EB4E0230323A
:1009300003F8012C0A22B6FBF2F202EB820EA6EBC0
:100940004E063036401E03F8026DE9D1083F002FF5
:1009500003F10806D7DD084600F0D0FF02460B463B
:100960002046294600F022FE0022DFF8483600F03B
:10097000D3FF04460D46CAE70DF18501401A0DF17B
:10098000850604E00099491E401E0091761C3178CE
:100990003029F7D0B8F1660F02D10099491C04E064
:1009A000B8F1650F0CBF012100210E9D4D19A84221
:1009B000B8BF451E002D1DD4854204DA705D342871
:1009C000C8BF392000DC30202946721E531800E0D1
:1009D0006D1E13F80149491E8442F9D0392802D10D
:1009E000705C401C7054002904D50098401C1646C9
:1009F0006D1C0090009C01F065F8406A0778DDF8F6
:100A0000388028B2002802DC01250FF224664BF062
:100A10002000662808BF641C16D0672846D120B283
:100A200010F1040F48DB404546DA9DF84000641C95
:100A3000010703D428B24045D8BF804620B2B8EBA6
:100A4000000848BF4FF000080FFA84FBBBF1000F0D
:100A500000F3B5800898411C0891302205990A548A
:100A6000B8F1000F03DC9DF84000010704D5089899
:100A7000411C089105990F5418EB0B0FB8BFC8F132
:100A8000000424B26042A0442AB20B909045B8BF43
:100A90004546059B08982DB209952A4631461844CB
:100AA00000F042FBA8EB05000C90D2E0BBF1610F17
:100AB00017D14FF0700B19E028B2404504DA9DF8C9
:100AC00040100A0758BF8046B8F1010848BF4FF0F0
:100AD0000008BBF1670F14BF4FF0450B4FF0650BDB
:100AE00004E0BBF1410F08BF4FF0500B0898411CC8
:100AF0000891B8F1000F059916F8012B0A5403DC90
:100B00009DF8400001071AD50898411C0891B8F1DA
:100B1000000F05990F5412DD6D1E28B28045B8BF35
:100B200045460598089B2AB23146184400F0FCFA65
:100B300008992DB269180891A8EB05000B9005984B
:100B40000899084421B2002980F800B003D42B2270
:100B50004270821C04E02D2242700C46821C6442CA
:100B600000212CAB20460AE004460A2094FBF0F05A
:100B700000EB8005A4EB450403F8014B491C00B2CF
:100B80000028F1DC012906DC4BF02000652804BFB9
:100B9000302002F8010B00292CAB08D1302002F8DC
:100BA000010B06E0491E585C303002F8010B0029A9
:100BB000F8DC059908980844121A099249E028B20D
:100BC00021B288421CDA0598089B2AB231461844A3
:100BD00000F0AAFA08992DB269180891ABEB05004C
:100BE000B8F1000F0B9003DC9DF84000020704D51C
:100BF000059847540999491C0991CDF8308028E09F
:100C00000598089B22B23146184400F08DFA0898E6
:100C10002D1B5844B8F1000F089003DC9DF84010DC
:100C20000A0703D5411C089105990F5428B2804545
:100C3000B8BF45460598089B2AB206EB0B0118443D
:100C400000F072FA08982DB228180890A8EB050059
:100C50000B909DF8400000F01400102840F0C28076
:100C6000079A08990B988A18099982180C988A187B
:100C700082180F98824280F2B580821A0A92B1E0FF
:100C80009DF84200622808D068280ED06A2814D047
:100C90006C281FD0712810D01CE0D9F8001051F832
:100CA000040BC9F80010C0B21AE0D9F8001051F8CE
:100CB000040BC9F8001080B212E0D9F80000C21D80
:100CC00022F00702C9F80020D2E900010832C9F871
:100CD000002006E0D9F8001051F8040BC9F8001004
:100CE0000021CDE902019DF8400001075AD5DDE958
:100CF0000223002B08BF002A54D04BF02000782894
:100D000050D1079812A930220A54401C431C079363
:100D100001F800B046E09DF84200622808D068283B
:100D20000ED06A2814D06C281FD0712810D01CE077
:100D3000D9F8001051F8040BC9F8001040B21AE0BD
:100D4000D9F8001051F8040BC9F8001000B212E0F5
:100D5000D9F80000C21D22F00702C9F80020D2E92C
:100D600000010832C9F8002006E0D9F8001051F857
:100D7000040BC9F80010C117CDE90201002902D502
:100D800007982D210AE0BDF84000810702D5079899
:100D90002B2103E0C00705D50798202112AA115482
:100DA000401C079012A8079901440591594602A8D2
:100DB00000F04EF816E001200790D9F8000050F836
:100DC000041BC9F800008DF848100BE00121252212
:100DD000BBF1000F07918DF8482003D00222079243
:100DE0008DF849B00F9A07980A990C9C121A089826
:100DF000521A0B99121A0998521A121A9DF84000A9
:100E0000141B41073FF5E2AA2020002C8DF80000BA
:100E10007FF7DCAA309E2546FFF7CCBA4FF0FF30B3
:100E200031B0BDE8F08F0000CBCCCC0C686A6C749C
:100E30007A4C00007072696E74665F733A2062616A
:100E40006420257320617267756D656E7400000003
:100E50002DE9FC4707468A463C6950466F2808BF83
:100E6000082505D0FFF790F9782814BF0A2510252A
:100E7000D7E900013C2680468946BAF1640F18BFC5
:100E8000BAF1690F05D1002903D5D8F1000869EB43
:100E90004909B9F1000F08BFB8F1000F0CD1386B48
:100EA00050B9082D3AD197F83800010736D53022CD
:100EB0003B2684F83B2031E08DF800A040464946AF
:100EC0002A46EB1700F002FE3032D0B2761E3A28E6
:100ED00001960EDAA255404649462A46EB1700F025
:100EE000F5FD80465FEA010908BFB8F1000F05D1A2
:100EF00008E09DF800001218513AEBE7F868A119D4
:100F00008842DBD3082D09D197F83800010705D5B1
:100F1000A05D302802D0761E3020A055C6F13C02DC
:100F2000BA61A119F960386B824208DA821A3A6212
:100F30004FF6EF70398F01403987BDE8F3870028FD
:100F40000ED597F8380000F01400102808D17B6BFC
:100F50007969386A5B1A1B1A9A1A002AC8BF3A6262
:100F6000BDE8F3872DE9D04306460F4614464FF0FF
:100F70000008DFF8449012E0E00707D542464B46F0
:100F80003046394600F0C8FC06460F464046494602
:100F900042464B4600F0C0FC641080468946002C57
:100FA000EAD130463946BDE8D0830000A086010072
:100FB0000000F03F84D7974100002440F8B5054673
:100FC0000E4617461C4600205CB117F8011BB0689E
:100FD000A847B06030B1F06A401CF0620020641E87
:100FE000F3D1F2BD4FF0FF30F2BD00007072696EB8
:100FF00074665F733A20256E20646973616C6C6F50
:10100000776564007072696E74663A20626164206C
:10101000256E20617267756D656E740000000000BA
:101020006E616E004E414E00696E6600494E46008C
:1010300030000EE002684368024408305FEAC37C77
:1010400044BF4B445B1E52F804CB43F804CB091F4A
:10105000F9D150F8041B0029ECD17047C9B20278CD
:101060008A421AB11CBF10F8012FF9E718BF0020FF
:1010700070470268531C03601170704780B500B957
:1010800006A005490B681BB122220021984701E008
:1010900000F09FFD222002BD18010020636F6E73D7
:1010A000747261696E742068616E646C65723A2056
:1010B000626164206D6573736167650000F101030F
:1010C00010F8011B11B110F8011BFBE7C01A7047A3
:1010D000C9B2830706D0521E22D310F8013B9942B1
:1010E000F7D11FE0083A13D302F1040241EA0121CB
:1010F00041EA014150F8043B121F21BF4B40A3F1CC
:10110000013C2CEA030C1CF0803FF3D0C9B2001F55
:10111000083210F8013B521E28BF91EA030FF8D89D
:1011200018BF0120401E704762B38B0708D0521EC3
:1011300011F8013B00F8013B00F024808B07F6D149
:10114000830740F0208000BF103A07D330B4B1E8E5
:101150003810103AA0E83810F9D230BC530724BF39
:10116000B1E80810A0E8081044BF51F8043B40F86B
:10117000043BD20724BF31F8022B20F8022B44BFD6
:101180000B7803707047121F17D35B0009D151F819
:10119000043B20F8023B1B0C121F20F8023BF6D246
:1011A0000BE051F8043B00F8013B1B0A20F8023B1E
:1011B0001B0C121F00F8013BF3D238BF121D521E48
:1011C00024BF11F8013B00F8013BF8D870472E000E
:1011D00010B5144600F002F8226010BDC1F30A53A6
:1011E00043B14A0012F5001F28D2A3F2FE32A1EB50
:1011F0000251704750EA410C20D001F0004C31EA16
:101200000C01B1FA81F204BFB0FA80F3D2180B3AA4
:10121000B2F120032CBF00FA03F1914041EA0C0126
:101220003EBFC2F1200C20FA0CF319439040524209
:1012300040F2FD33D21A01EB035170470022704790
:1012400041EA030C50EA4C0C52EA0C0C4FF4001C1F
:1012500009D307D01CEB410F9CBF1CEB430F8B4203
:1012600008BF824270471CEB430FFBD8994208BF6E
:101270009042704741EA030C50EA4C0C52EA0C0CC5
:101280004FF4001C09D307D01CEB410F9CBF1CEB93
:10129000430F994208BF904270471CEB410FFBD8A7
:1012A0008B4208BF82427047124254D440F2FF7C06
:1012B0001CEA11530FD0634531D09B1863453CBFE6
:1012C00001EB0251704701F0004141EA0C5100204E
:1012D000AFF30080704750EA410320D001F0004C8A
:1012E00091EA0C011CD0B1FA81F30B3B9A420DD963
:1012F000D21A994051EA0C01C3F1200C20FA0CFCDF
:1013000061449840531C40F2FF7CD7E7914041EA8A
:101310000C01C2F1200C20FA0CF3194390407047E5
:10132000B0FA80F31533202BE0D3202AEED3203AF5
:10133000203B9A4209D9D21A00FA03F141EA0C0182
:101340000020531C40F2FF7CB8E700FA02F141EAAA
:101350000C0100207047524240F2FF7C1CEA1153FE
:101360000DD06345DBD0B2EB030C3CBFA1EB0251C7
:1013700070470CF1010221EA035141F4801150EA57
:10138000410CCCD001F0004C352A27DC30B481EA86
:101390000C01B2F1200309DAC2F12003044601FA7C
:1013A00003F5D0402843D1409C400CE0C3F120021B
:1013B000450020FA03F418BF44F0010421FA03F0B9
:1013C00091400C43002174F1004550F1000051EBB5
:1013D0000C01244230BC7FF47BAF70476146002093
:1013E00076E70000C1F30A5340F21E42D31A0CDD27
:1013F000CA0283F3070342EA505242F00042DA4045
:1014000002EBE17282EAE17070476FEAE17203F287
:10141000E13008B182F000407047000010F0004158
:1014200060B148BF4042B0FA80F29040D21CC2F591
:10143000846241EA025202EBD0214005704700006D
:10144000841A71EB030604D26E40001BB1411219DD
:1014500073414FF4001C1CEB410F34BF7CEB43067F
:1014600083E00C0DA4EB1356362E00F37C80012E86
:1014700045EAC32341DC43EA525312BFD20292022F
:101480005B08240545EAC12141EA5051D2EBC02056
:10149000994125D407D1B0FA80F610FA06F162D04E
:1014A0000020203608E0B1FA81F6B140C6F12002F2
:1014B00020FA02F21143B0404FEAF474B4EB465400
:1014C00034F001064FEA74040AD8D6F50016760DFA
:1014D00004F00044F04061FA06F25040F140484008
:1014E000C00A40EA415021F0004128BF5FEA5005A0
:1014F00050F1000044EBD12135E0DB0A45EAC1217F
:10150000C90AB6F120050EDD42EA0242120CC5F10D
:10151000200603FA06F6EB4042EA06056D429841C2
:1015200061F100010DE062FA06F5F240554063FA00
:1015300006FC82EA0C02F3405A406D42904161EB96
:10154000030111F4801F05D1641E620502D06D00F5
:101550004041494121F48011430875F1004350F1A5
:10156000000041EB045170BC70471CEB410F15D2D9
:1015700023F0004352EA43060BD04FEA4C0CBCEB7D
:10158000410F04D80C0D661E342EB7DDEBE7801A30
:10159000994150EA410608BF0021E4E708BF1CEB6F
:1015A000430F28BF6FF00001DDE7000070B491EA3F
:1015B000030F4FF000457FF543AF6B40841A71EB8A
:1015C000030603D2001BB141121973414FF4001CF2
:1015D0001CEB410F34BF7CEB430442E00C0DA4EB49
:1015E0001356352E4FDC45EAC323DB0A45EAC121F9
:1015F000C912B6F120050DDD63FA05F6EB4086EA67
:101600000305124218BF45F00105C01851F1000151
:101610000CD213E062FA06F5F2405540F3415A400D
:10162000B340F3405A408018594107D349085FEA54
:1016300030005FEA350528BF45F0010501F580114E
:10164000420875F1004250F1000041EB04514E0098
:1016500016F5001F70BC38BF70470020090D090542
:1016600070471CEB410F10D252EA43060BD0BCEB83
:10167000410F05D80C0DAB43661E342EB6DD02E0DB
:10168000AB438018594170BC704770BC7047000074
:10169000F0B540F2FF7581EA030C0CF0004C15EA3E
:1016A00011541DBF15EA1357AC42AF42E5E0BC41EF
:1016B000C1F31301C3F31303801A994143F4801358
:1016C00004D2641E0018494180185941C90241EAF8
:1016D0005051B1FBF3F603FB1611A2FB0675D7EBD5
:1016E000C020A94102D2761E80185941C90241EAA0
:1016F0005051B1FBF3FE03FB1E11A2FB0E75D7EB9D
:10170000C020A94103D2AEF1010E801859418902CF
:1017100041EA9051760546EA8E2EB1FBF3F603FBC3
:101720001611A2FB0675D7EB8020A94102D2761EC6
:1017300080185941C90241EA50514EEA060EB1FBE8
:10174000F3F603FB1611A2FB0675D7EBC020A941E7
:1017500002D2761E80185941C90241EA5051B1FBAC
:10176000F3F703FB1711A2FB0735D3EBC020A94108
:1017700067F100070CBF004247F0010766F3D52769
:101780004FEA1E31B80814F5806412DDBD0775F10B
:10179000004250EB0E5051EB045111F5801F5CBF1D
:1017A00041EA0C01F0BD4CF07F6141F0E0410020C6
:1017B000F0BDBD076D0840EA0E5041F48011D4F130
:1017C0000104B4F120060ADAC4F120060200E04068
:1017D00001FA06F3E1401843B24015430EE0342C01
:1017E00013DCC6F1200445EA40056D0820FA06F234
:1017F000154321FA06F0A1400D43002175F1004286
:1018000050F1000051EB0C01F0BD00205FEA0C012B
:10181000F0BDCFB992185B41B3FA83F704BFB2FAB7
:1018200082F6BF190B3FB7F120062FBF02FA06F36D
:10183000BB40C7F1200622FA06F638BF3343BA4050
:101840001CB1E419641E33E77F4231F00041B1FA64
:1018500081F404BFB0FA80F6A4190B3CB4F1200661
:101860002FBF00FA06F1A140C4F1200620FA06F6C7
:1018700038BF3143A0403C1B1AE7AC421ABF05EA0F
:101880001357AF4212E050EA41061CBF52EA43062A
:10189000BFE750EA4107304661461CBF41EA0551A7
:1018A000F0BD52EA430C08BFC143F0BD00204FF425
:1018B000001616EB410F98BF16EB430F08BF16EB4F
:1018C000410F24BFC14305E016EB430F0CBF614637
:1018D0004CEA0551F0BD0000400D40F21E4C40EABC
:1018E000C120BCEB115C40F0004003D48CF3070135
:1018F000C84070476FEAE1707047000050B1B0FA1D
:1019000080F18840C91CC1F58461090501EBD02133
:10191000400570470146704730B540F2FF7C1CEA35
:1019200011541DBF1CEA1355644565453FE0641919
:1019300081EA030C6FF35F530CF0004C43F4801307
:10194000C90241F0004141EA505EC5021100A5FB09
:10195000020200284FF00000EEFB01204FF00001D2
:10196000E3FB052118BF42F0010240180021494164
:10197000E3FB0E01A4F580640D0302D292184041EE
:10198000494154F1010470DD450872F1004250F103
:10199000000051EB0451A1F5801102D441EA0C0181
:1019A00030BD40F2FF7E4CEA0E51002030BD0CEA03
:1019B0001355644518BF654581EA030C0CF0004CD3
:1019C00041D050EA410E1CBF52EA430E02E061468C
:1019D000002030BD24422C441BD15FEA050EF6D016
:1019E000090302BF01460020AEF1140EB1FA81F5E1
:1019F000AEEB050401FA05FE0C35C5F1200100FA35
:101A000005F5C8404EEA000E6FF35F5343F48013B0
:101A10009CE733F00043B3FA83F504BFB2FA82FEC9
:101A200075440B3D641BB5F1200E2FBF02FA0EF377
:101A3000AB40C5F1200E22FA0EFE38BF43EA0E037A
:101A4000AA40641C7CE750EA410E14BF52EA430EE0
:101A50006FF000014FF4001515EB430F8EBF1946D0
:101A600015EB410F9DE7B4D830BDD4F10104B4F1BA
:101A700020050FDAC4F12005520828BF42F0010208
:101A800010FA05FE01FA05F57244E2BFE040284372
:101A9000E1400FE0352C9ADCC5F1200452EA400207
:101AA00020FA05F218BF42F0010231FA05F0A14018
:101AB0000A43002172F1004250F1000051EB0C0189
:101AC00030BD00000048704710000020D3BBD9B1E2
:101AD000B2F5803F5BD2022A1ED98C46B1FBF2F1EF
:101AE00002FB11C31B0443EA1043B3FBF2FC02FBED
:101AF0001C3380B240EA0343B3FBF2F002FB103226
:101B000040EA0C4000237047022A05D98446B0FB06
:101B1000F2F002FB10C270474AB105D100F0010299
:101B200049085FEA3000704700220023704700F048
:101B300053B80B000200002100207047F7D30022A9
:101B400000237047904271EB030CF2D370B5B1FAE9
:101B500081F4B3FA83F52C1BA340C4F1200532FABB
:101B600005F63343A2405FF00046E64002E05B0822
:101B70005FEA3202841A71EB030524BF204629462E
:101B80007641F4D302000B003000002170BD70B527
:101B9000B1FA81F4B2FA82F5C4F120046419B4F107
:101BA0002006DAD3B2405FF00044F440002502E0A2
:101BB00052085FEA3303C61A71EB020E24BF3046A7
:101BC000714664416D41F3D302000B0020002900EF
:101BD00070BD012000F002B87047000080B5AFF37F
:101BE0000080024A11001820ABBEFBE7260002006D
:101BF00038B504002BD094F8200010B9204600F02E
:101C000068FB2068016821F00201016000F0BEFB62
:101C1000054620684168880705D500F0B7FB401BE2
:101C20000B28F6D311E020680168024641F001015B
:101C3000116000F0ABFB054620684168C80708D476
:101C400000F0A4FB401B0B28F6D300F0E5F80120C0
:101C500032BD207E012806D1216808680A4640F07E
:101C60008000106005E020680168024621F08001D4
:101C70001160607E00F03DF80CBF41F0400121F0A2
:101C800040010160A07E00F034F80CBF41F020015B
:101C900021F020010160E07E00F02BF80CBF21F064
:101CA000100141F010010160207F00F022F80CBF0C
:101CB00041F0080121F008010160607F00F019F88F
:101CC0000CBF41F0040121F004010160A268E0684A
:101CD0002169024360690A43616802432068491E22
:101CE0000A43C26100216162012084F820000020C3
:101CF00032BD0128206801687047F0B590F82020B7
:101D0000012A18BF022A54D1474A106840F0010046
:101D10001060136823F47C53136010684B6A40EA28
:101D20000320106001200B7D03F01F0300FA03F372
:101D3000D069DC432040D0613C4800F5117500F5C6
:101D40001076C86958B9D0682040D060CF6800F0DC
:101D500034F80F68C7EA004C486945F830C0C869D4
:101D600001280BD1D0681843D0600F6800F025F827
:101D7000CE684F69C6EA004045F8370088690028F8
:101D800050680CBF20401843506008690028506913
:101D900007BF0440546118435061086A012802D10A
:101DA000D0690343D36100201168490849001160DC
:101DB000F0BD416A41F480219CE04868D1F814C02C
:101DC000C0EA074746F83C708868704738B5044653
:101DD00094F82000012819D1022184F820102068ED
:101DE000026852085200026000F0D0FA05462068EE
:101DF0004168C80707D500F0C9FA401B0B28F6D385
:101E000000F00AF806E00020606232BD606A40F42B
:101E100000206062012032BD606A40F400306062E0
:101E2000052184F8201070470066004000640040DF
:101E3000F0B590F820400568AD68012C18BF022C61
:101E400055D115F0E05F4ED0C5F30164032C03D3E8
:101E5000416A41F400014DE00125A5401D602401C7
:101E60000368CE6803F5C0758B681BB90B6846EA3A
:101E7000435603E04F6843EAC7031E432E510568EB
:101E80000B6905F5C2763351097D012906D1036836
:101E900003F5C2710D5945F480750D519379D179CF
:101EA00055791B0443EA0163117943EA0523056868
:101EB00025440B43C5F88C319378D17855781B04B1
:101EC00043EA01631178026843EA052322440B4385
:101ED000C2F88831006800F5C070015941F0010175
:101EE00001510020F0BD416A41F4001102E0416A55
:101EF00041F4802141620120F0BD416A41F480211A
:101F0000416201207047F0B590F82040012C18BFC5
:101F1000022C66D10029046801D1E56800E025693A
:101F200015F0030F03D1416A41F400115CE00D018B
:101F300004F5D876745914F004049460066806F524
:101F4000D87603D17459640D146002E07659F6080E
:101F50005660046804F5D876775907F00207D76011
:101F600000F043F806F00F06166100F03EF8C6F3E5
:101F70000724946100F039F8360C566102682A444F
:101F8000D2F8B8411C7006682E44D6F8B821120A5F
:101F90005A7004682C44D4F8B821120C9A70046862
:101FA0002C44D4F8B821120EDA7000F023F81A711C
:101FB00000F020F8120A5A7100F01CF8120C9A7105
:101FC00000F018F8120EDA71006821B9C16841F00A
:101FD0002001C16003E0016941F02001016100209E
:101FE000F0BD416A41F4802184E704682C44D4F8B0
:101FF000B461704704682C44D4F8BC21704790F851
:102000002020012A18BF022A03D100684269114327
:1020100000E072E74161002070472DE9F84F054666
:102020004FF0000828684669D0F804B08468D0F8FA
:102030000C90D0F810A08769F10745D5E20713D5B9
:1020400001218160A00703D5284600F0E3FA0BE0E8
:10205000600748BF4FF4006806D420074EBF4FF416
:102060008058284600F007FCE00515D52A684FF493
:102070008071A005916003D5284600F0CFFA0BE0EF
:10208000600548BF48F4005806D420054EBF48F408
:102090008048284600F0F0FBE00315D52A684FF48D
:1020A0008031A003916003D5284600F0C9FA0BE007
:1020B000600348BF48F4004806D420034EBF48F4EC
:1020C0008038284600F0D9FB300748BF5FEAC96175
:1020D00004D52968102048F40078C860700748BF0C
:1020E0005FEA097105D508202A68D060284600F00B
:1020F000C5FBB00707D52968C86810F0030F1CBFDF
:10210000284600F0A1FA700648BF5FEACA6104D50C
:102110002968102048F480680861B00648BF5FEA6B
:102120000A7105D508202A681061284600F0A7FB2F
:10213000F00607D52968086910F0030F1CBF284670
:1021400000F09EFBB00348BF5FEACB6105D52A686B
:1021500010205060284600F094FBF00348BF5FEA6F
:102160000B7105D52A6808205060284600F08AFBCC
:10217000300440D55FEA4B713AD5F00503D5F90735
:1021800048BF48F00108B00503D5B90748BF48F07B
:102190000208700503D5790748BF48F004083005E8
:1021A00026D517F0700F23D007F07007102F0CD032
:1021B000202F0DD0302F0ED0402F0FD0502F10D009
:1021C000602F08BF48F480780DE048F008080AE066
:1021D00048F0100807E048F0200804E048F0400804
:1021E00001E048F080082868816921F07001816170
:1021F000042029684860B8F1000F09D0686A48EAED
:102200000008C5F824802846BDE8F24F00F03BBB2B
:10221000BDE8F18F80B5032000F043FB574801680B
:1022200041F4E0210160002200216FF00B0000F07A
:1022300045FB002200216FF00A0000F03FFBBDE8E3
:102240000840002200216FF0090000F037BB10B5F4
:1022500086B000200090002249484A4C016941F4B0
:1022600000310161016901F400310091009900928F
:10227000036843F001030360016801F0010100916C
:10228000009900920421036843F0080303600222CE
:10229000006800F00800009000980191029201216E
:1022A0000391002207210591049201A9204600F024
:1022B0005BFB0822019201A9204600F055FB262075
:1022C00000F019FB00220F21262000F0F7FA06B0DB
:1022D00010BD80B586B00020009002222A48016817
:1022E00041F0007101600321006800F0007000906F
:1022F00000982448019102920021039103220921B0
:102300000591049201A900F02FFB00220F21132058
:1023100000F0D4FA00220F21142000F0CFFA00229E
:102320000F21152000F0CAFA00220F21162000F01C
:10233000C5FA132000F0DFFA142000F0DCFA1520B3
:1023400000F0D9FA162000F0D6FA07B000BD80B52B
:10235000002000900C48016841F010010160006805
:1023600000F0100000900098362000F0C4FABDE89C
:10237000084000220F21362000F0A0BA24ED00E032
:1023800030380240000002404038024001484068B6
:10239000704700BF0000002010B500F0FBFB542088
:1023A00000F019F800F0A8F800F007F900F0F8F8CC
:1023B00000F016F900F088F8DFF8FC4340F2034122
:1023C0002046FFF71CFE00B1FEE72046FFF7FEFCAB
:1023D00000B1FEE7FEE718B591B001224FF480335B
:1023E0000592069302224FF4800332280B920C933D
:1023F0004FF4805104D054280DD0782812D03BE0FF
:1024000004220D92322300F039F8012405A800F0CF
:10241000DBFBD0B1FEE704220D92542300F02EF82E
:102420000224F3E704220D92782302220E930F92E6
:1024300002230F2210930092019300224FF4A05325
:102440000292039304910324E0E72146684600F0DA
:102450004BFD00B1FEE700F0CDFD4FF47A71B0FB0B
:10246000F1F000F053FA042000F061FA002200219C
:102470004FF0FF3000F022FA12B010BD02220F928E
:102480000E930F22009202230022109301930292D6
:1024900003910492704780B588B001210691002114
:1024A0000491059140F25D62C44801780292491C92
:1024B000CAB28DF80010042A08BF00210170202143
:1024C000BF4800F03DFB6AE180B500218AB005916C
:1024D000009101204FF4E0710890002202910790D2
:1024E00004920192039206926946B348FFF705FCF5
:1024F00000B1FEE70BB000BD18B585B0002000901C
:10250000B04CB148016841F001010160026802F07D
:1025100001020092002200990092036843F0040334
:102520000360016801F004010091009900922021EC
:10253000036843F0020303600122006800F0020018
:102540000090002300989E480091019202936946F2
:1025500000F00AFA4FF4507100910122002102911B
:1025600001926946204600F0FFF94FF48070012186
:1025700000F010F8954800F0F7F94FF40050944936
:1025800000F008F8204600F0EFF9282000F0B3F939
:1025900006B010BD0090019100220292694670477A
:1025A00080B58C488C4941F2873242F20F7301604A
:1025B0004260C36000F042FD0FE04FF4E13280B5AD
:1025C00086488749426000230C2201608360C36013
:1025D00003618361426100F0A9FE00B1FEE701BD25
:1025E00080B575487F49016000228260827602765C
:1025F0000021032281834260C16001234FF4202225
:102600004FF480114376C37602614161FFF7F0FA1F
:10261000E3E7000000B58DB074A102E000B58DB015
:1026200079A1684600F0B0FF6846FEF747FD82B228
:102630004FF0FF336946694800F0B5FE0DB000BDAC
:1026400000B58DB077A1ECE718B58FB0634C6B4641
:1026500004F144020021FFF756FC00B1FEE7606C74
:1026600040F25D61884209D1206DE8B99DF8000013
:1026700000F040F89DF8002071A112E040F2516195
:10268000884211D1206D012803D1084600F07AF864
:102690000AE048B99DF800009DF801206FA142EAC8
:1026A000002202A800F070FF02A8FEF707FD82B228
:1026B0004FF0FF3302A9204600F075FE10B010BDA8
:1026C00010B5494C2078042888B00CD1022140F282
:1026D000516206910292002102220491059200F0BB
:1026E00064F820B1FEE7FFF7D6FE2078401C20708A
:1026F00008B010BD38B5401E0328344C314D2ED8DB
:10270000DFE800F0020C161F01224FF4007128468A
:1027100000F012FA00F02FF800220EE000F025F889
:1027200001224FF48071284600F006FA002204E0EE
:1027300000F01BF800F01FF8012200F011F8002251
:1027400007E000F012F800F016F8002200F008F898
:1027500001222846BDE83840402100F0EDB931BDE6
:102760004FF48071204600F0E7B900224FF4007169
:10277000284600F0E1B900224FF48071284600F0AD
:10278000DBB9000080B500BF3AA2128888B00223EE
:10279000ADF800200693002202900492059200F00A
:1027A00004F800B1FEE709B000BD01AB6A4602A91A
:1027B0000148FFF73DBB0000F00000201D01002094
:1027C000000002400008024030380240000402408D
:1027D00000002110A8000020001000404800002048
:1027E00000440040006400401C0100204D657373EC
:1027F000616765205472616E736D69747465643AC3
:102800004D300D0A000000004D657373616765204F
:102810005472616E736D69747465643A4D310D0A5A
:10282000000000004D657373616765205472616E2E
:10283000736D69747465643A4D320D0A00000000CE
:102840004D6573736167652052656365697665647C
:10285000203A202325780D0A000000005265706C94
:1028600079205265636569766564203A202523588E
:102870000D0A0000ABCD7047704770477047704736
:1028800070477047704770470901020002D42E4814
:10289000815470472D4B02F00F021A4402F8041CB9
:1028A00070472B4B19684FF6FF020002114000F4ED
:1028B000E0600843274908431860704770B5244B0F
:1028C0001C68C4F302230124C3F10705052D2EBFA4
:1028D0000F2504FA05F56D1E1E1D072E34BF0023BB
:1028E000DB1E2940994004FA03F3BDE870405B1EEB
:1028F0001A401143C8E7010007D4012200F01F016C
:10290000154B8A40400943F820207047401EB0F123
:10291000807F01D3012070471049114A486000238D
:10292000F02010708B60072008600020704704289A
:102930000A4904D1086840F00400086070470A683A
:1029400022F004020A60704700E400E018ED00E0A5
:102950000CED00E00000FA0500E100E010E000E00E
:1029600023ED00E000F030BE2DE9F84F0D460026C3
:102970007C497D4A0F23044601202F68B04000EABD
:102980000708804540F0D2804FEA460C032707FA3B
:102990000CF76FEA070E6F6807F00309B9F1010F32
:1029A0001CBF07F00307022F12D1A768D5F80C90BF
:1029B0000EEA070709FA0CF949EA0707A7606768F2
:1029C00027EA00006F68C7F30017B740384360601C
:1029D000B0002F7907F00307032F21D0E768D5F85F
:1029E00008900EEA070709FA0CF949EA0707E760B9
:1029F0002F7907F00307022F12D1F70804EB87079E
:102A000000F01C09D7F820A003FA09FB2AEA0B0AF8
:102A1000D5F810B00BFA09F949EA0A09C7F820906D
:102A200027680EEA070E2F7907F0030707FA0CF75D
:102A300047EA0E0CC4F800C06F68FF0076D5002787
:102A400000974FEA960CD2F800E04EF4804EC2F8A0
:102A500000E000F00C00176807F480470097DDF8ED
:102A600000E0424F57F82C7003FA00FE27EA0E0EE2
:102A70003F4FBC4208BF002722D03E4FBC4208BF98
:102A800001271DD03C4FBC4208BF022718D03B4F46
:102A9000BC4208BF032713D0394FBC4208BF0427EC
:102AA0000ED0384FBC4208BF052709D0364FBC4274
:102AB00008BF062704D0354FBC420CBF07270827A4
:102AC00007FA00F040EA0E00DFF8A0E04EF82C0014
:102AD0006FEA0800D1F800C06F6800EA0C0CFF0331
:102AE00048BF48EA0C0CC1F800C0D1F804C06F68B8
:102AF00000EA0C0CBF0348BF48EA0C0CC1F804C044
:102B0000D1F808C06F6800EA0C0CFF0248BF48EA21
:102B10000C0CC1F808C0D1F80CC000EA0C0C6868B5
:102B2000800248BF48EA0C0CC1F80CC0761C0F2E7E
:102B30007FF622AFBDE8F18F02B9090481617047C9
:102B4000426901EA0203914341EA0341816170470E
:102B50000F4A136801460B421CBF116000F035BDDF
:102B600070470000003C01404438024008380140F2
:102B7000000002400004024000080240000C024035
:102B8000001002400014024000180240001C0240E5
:102B9000143C014080B50B48016841F400710160AC
:102BA000026842F480620260016841F48071016051
:102BB0000320FFF776FE002000F008FDFFF72AFB58
:102BC000002002BD003C02402DE9F843040016D06D
:102BD0002078DFF80463C10713D5B06800F00C005B
:102BE000042807D0B06800F00C0008283DD17068B8
:102BF00041023AD53068810303D56068002800F0AF
:102C000065812078B54F810719D5B06810F00C0F99
:102C100007D0B06800F00C0008285BD17068410252
:102C200058D43068810703D5E068012840F04E8110
:102C30003168206921F0F80141EAC0013160217852
:102C4000080779D56069A649002868D001220A6082
:102C5000FFF79CFB0546706F81076DD4FFF796FB6D
:102C6000401B0228F7D9032033E16068B0F5803FAC
:102C700004D1306840F48030306011E0B0F5A02F0E
:102C8000306806D140F480203060316841F48031F2
:102C900005E020F480303060316821F4802131601B
:102CA000606858B1FFF772FB054630688103A8D40D
:102CB000FFF76CFB401B6528F7D3D4E7FFF766FBF3
:102CC0000546306881039CD5FFF760FB401B6528F3
:102CD000F7D3C8E7E068A8B101213960FFF756FBD8
:102CE00005463068810705D4FFF750FB401B0228DA
:102CF000F7D9B8E73068216920F0F80040EAC10050
:102D000030609CE73860FFF741FB05463168880773
:102D100095D5FFF73BFB401B0228F7D9A3E70860D6
:102D2000FFF734FB0546706F810705D5FFF72EFBD3
:102D3000401B0228F7D996E72078410760D5306C10
:102D40000025C1000BD4002000900125316C41F01A
:102D500080513164306C00F0805000900098DFF8B2
:102D60008481D8F80000C10513D4D8F8000040F4DD
:102D70008070C8F80000FFF709FB8146D8F8000012
:102D8000C10506D4FFF702FBA0EB09000228F5D924
:102D900069E7A068012805D00528306F06D140F00A
:102DA00004003067306F40F0010005E0400840004B
:102DB0003067306F20F00400306741F28938A06836
:102DC00060B1FFF7E3FA8146306F810713D4FFF754
:102DD000DDFAA0EB09004045F6D344E7FFF7D6FA49
:102DE0008146306F810706D5FFF7D0FAA0EB0900C6
:102DF0004045F6D337E71DB1306C20F08050306489
:102E0000A069002864D0B16801F00C0108293AD00B
:102E100002282AD100203866FFF7B8FA0546306844
:102E2000810105D5FFF7B2FA401B0228F7D91AE74E
:102E3000E069216A626A0843A16A490840EA82108F
:102E4000491E40EA0140E16A40EA016070600120E9
:102E50003866FFF79BFA04463068810138D4FFF7E3
:102E600095FA001B0228F7D9FDE600203866FFF727
:102E70008DFA0446306881012AD5FFF787FA001BD6
:102E80000228F7D9EFE6012820D07068E26900F443
:102E90008001914202BF00F03F01226A914201BFCE
:102EA00047F6C0710140626AB1EB821F0ED1A26A7F
:102EB00000F4403101F580315208B1EB024F02BFFE
:102EC00000F07060E16AB0EB016F01D0012000E01A
:102ED0000020BDE8F28300BF0038024000004742F6
:102EE000800E4742007000402DE9F04104000F467B
:102EF00054D04B4E306800F00700B84202D200F0C8
:102F000073F84BD12068474D810712D5400703D590
:102F1000A96841F4E051A9602078010703D5A868A9
:102F200040F46040A860A968A06821F0F001014366
:102F3000A9602178C80729D56068012802D12968CD
:102F40008A0305E0022818BF032803D129688A01F3
:102F500003D423E029688A0720D5A968890840EAB4
:102F60008100A860FFF712FA8046A868616800F047
:102F70000C00B0EB810F09D0FFF708FAA0EB0800B6
:102F800041F289318842F0D303202BE0306800F011
:102F90000700874204D200F027F801D0012021E089
:102FA0002078410705D5AA68E06822F4E052024380
:102FB000AA602178080706D5A968206921F4604134
:102FC00041EAC001A96000F021FBAA681649174B2D
:102FD000C2F30312895CC84018601548006800F00D
:102FE000F5FA0020BDE8F0813770316801F0070183
:102FF000B94270470D48006870470C480D4A006898
:1030000013680D49C3F3822206E00848094A0068A4
:1030100013680949C3F34232895CC8407047000015
:10302000003C024000380240C43700080C00002079
:1030300008000020083802403438000838B5040081
:1030400001D1012032BD00F067F818B900F060F836
:10305000FFF77DF93AE090F83D10012901D00120F9
:103060007047022180F83D100168CA6842F00102F1
:10307000CA600168DFF87C20914218BFB1F1804F2F
:1030800017D0DFF8742091421CBFDFF870309942EE
:103090000FD0DFF86C2091421CBFDFF868309942F6
:1030A00007D0DFF8642091421CBFDFF860309942FE
:1030B00005D1896801F00701062905D001680A6871
:1030C000084642F00102026000207047022068704A
:1030D000211D206800F0C8F80120A8720121A97004
:1030E000E87029716871A971E87129726872697054
:1030F000002032BD000001400004004000080040F4
:10310000000C004000040140004001400018004055
:10311000002129702046704704F13C05687870470B
:1031200010B50446206801698A0715D5C1688A0769
:1031300012D56FF00201016101222277806910F03F
:10314000030F204602D000F091FA03E000F08FFA5E
:1031500000F087F800202077206801694A0715D51C
:10316000C1684A0712D56FF004010161022222777B
:10317000806910F4407F204602D000F077FA03E027
:1031800000F075FA00F06DF80020207720680169E2
:103190000A0715D5C1680A0712D56FF00801016149
:1031A00004222277C06910F0030F204602D000F0FD
:1031B0005DFA03E000F05BFA00F053F8002020779E
:1031C00020680169CA0615D5C168CA0612D56FF014
:1031D0001001016108222277C06910F4407F204667
:1031E00002D000F043FA03E000F041FA00F039F8B1
:1031F0000020207720680169CA0708D5C168CA077E
:1032000005D56FF0010101612046FFF759FA2068EA
:1032100001690A0608D5C1680A0605D56FF0800164
:103220000161204600F024FA206801694A0608D5A9
:10323000C1684A0605D56FF040010161204600F0E3
:1032400018FA206801698A060AD5C1688A0607D576
:103250006FF0200101612046BDE8104000F00ABA7D
:1032600010BD204600F007BAF0B50568244C254B88
:10327000254E264FDFF898C0A04218BFB0F1804F0E
:1032800007D0604518BFB84203D0B04218BF98427B
:103290000DD14A6825F070051543A04218BFB0F162
:1032A000804F17D060451CBFB842B04212D0984240
:1032B0001CBF184A90420DD0174EB0421CBF174A8F
:1032C000904207D0164EB0421FBF164A9042164E8B
:1032D000B04203D1CA6825F4407515434A6925F008
:1032E000800515430560A0428D68C5620A68826248
:1032F00012BF98420969016301224261F0BD0000DA
:103300000000014000040140000C004000080040A3
:1033100000040040004001400044014000480140DA
:1033200000180040001C00400020004038B5040098
:1033300001D1012032BD00F028F808B900F016F8DC
:1033400000F019F800F025F8FFE7416100F001F8FE
:1033500032BD2068C16841F40051C160002068603E
:10336000202169702020A87000207047002129705A
:103370002046FEF76CBF242068702068C16821F4E5
:103380000051C160204600F099B804F13C0568780E
:1033900070472068016921F490410161206841690A
:1033A00021F02A0170472DE9F843054605F13C0656
:1033B0000C46707820281746994649D10CB1380040
:1033C00001D1012045E03078012841D00121317040
:1033D0000020706021227270FEF7D8FFAF84804613
:1033E000EF84A868B0F5805F04BF286900280EBF8D
:1033F0002746204600270021317004460EE014F8CD
:10340000012B426007E02868002CF8D137F8021B36
:10341000C1F308014160E88C411EE9844346E88C11
:10342000CDF80090002807D000228021284600F027
:1034300012F80028E7D005E000224021284600F0DD
:103440000AF808B1032004E020207070002000E09A
:103450000220BDE8F2832DE9F041069C05460E46A8
:1034600090461F46286801683140B1420CBF0120D8
:103470000020404519D114F1010FF3D024B1FEF71B
:1034800085FFC01B8442EDD22868C16821F4D07149
:10349000C160202200F00CF805F13C0020214170B1
:1034A000827000210170032000E00020BDE8F0815F
:1034B00028684169490849004161704770B5044670
:1034C00022681169E06821F4405101431161D36819
:1034D0002748A168034020690B4361690343E06901
:1034E0000B430343D3605169A06921F44071014348
:1034F000516120498A421CBF1F48824202D1FFF716
:1035000084FD01E0FFF779FD62682568E46919210F
:10351000B4F5004FA1FB00016FF0630612D1D30F89
:103520005200FEF7D3FA00F029F8F6003236642094
:10353000B6FBF0F0420002F4F87202EB011200F068
:10354000070010E0930F9200FEF7C0FA00F016F8A3
:10355000360132366420B6FBF0F000F0F00202EBE8
:10356000011200F00F008018A86070BD000000007C
:10357000F369FFFF00100140001401406421B0FB1B
:10358000F1F106FB010670470CB430B583B00A4672
:1035900006A90291044600250194009502AB01A9F9
:1035A000084878441E30FCF7F2FD019A1570002897
:1035B0004EBF04460198041B204603B030BC5DF8A2
:1035C0000CFB00BFAFDAFFFF7047704738B50D4DF9
:1035D0000D4B2A7804464FF47A711868B1FBF2F269
:1035E000B0FBF2F0FFF792F950B9102C08D200228C
:1035F00021464FF0FF30FFF761F9AC60002032BD8B
:10360000012032BD000000200C00002030B5144C19
:10361000606800F00C00042802D0082802D01DE0E9
:10362000104830BD226820680023410202F03F02AA
:1036300004D525680B49C5F3881003E020680A49C2
:10364000C0F38810A1FB0001FEF740FA2168C1F326
:103650000141491C4900B0FBF1F030BD024830BDCA
:103660000438024000127A000024F40070477047CA
:10367000704770477047704701000000000000006D
:10368000100000000024F400E2130008E213000818
:10369000E2130008E2130008E2130008E213000836
:1036A000E2130008FFFFFFFFFFFFFFFFCE1100083E
:1036B000E2130008E2130008FFFFFFFFFFFF000016
:1036C00080B500F01BF8BDE80140FFF74BB900E002
:1036D00000BF0848FEF7A1BCFBE70748FFF720BD85
:1036E00080B50548FFF7B7FCBDE802404FF4005035
:1036F000FFF72EBAF0000020A80000200248416821
:1037000002788A18426070470000002030B400251B
:1037100012E050F8042BD30744BF4A44521E091F3D
:10372000042942F8045BFAD213468C0744BF158083
:103730009B1CC90748BF1D7050F8041B0029E8D125
:1037400030BC704710B5074979441831064C7C44A9
:10375000163404E00A68081D114488470146A14256
:10376000F8D110BD2C0000004C0000004EF688512E
:10377000CEF20001086840F470000860BFF34F8F7C
:10378000BFF36F8F4FF00170E1EE100A7047000039
:103790007DFFFFFFD800000048000020000000006F
:1037A00093D8FFFF48000000D0FEFFFF000000207C
:1037B000000000000248016841F470010160704798
:1037C00088ED00E00000000000000000010203049A
:1037D0000607080900F00DF8002801D0FFF7B2FF36
:1037E000AFF300800020AFF30080FEF7D5FD00F0BE
:1037F00002F80120704700F001B800000746384683
:10380000FEF7ECF9FBE700000548014603B4684603
:1038100080F30988AFF30080FFF7A8FFFFF7DAFF16
:10382000A5EDF5FE0148804701480047B53700087F
:10383000093800080000000001020304FFF7FEBF82
:10384000FFF7FEBFFFF7FEBFFFF7FEBFFFF7FEBFAC
:10385000FFF7FEBFFFF7FEBFFFF7FEBFFFF7FEBF9C
:10386000FFF7FEBFFFF7FEBFFFF7FEBFFFF7FEBF8C
:10387000FFF7FEBFFFF7FEBFFFF7FEBFFFF7FEBF7C
:10388000FFF7FEBFFFF7FEBFFFF7FEBFFFF7FEBF6C
:10389000FFF7FEBFFFF7FEBFFFF7FEBFFFF7FEBF5C
:1038A000FFF7FEBFFFF7FEBFFFF7FEBFFFF7FEBF4C
:1038B000FFF7FEBFFFF7FEBFFFF7FEBFFFF7FEBF3C
:1038C000FFF7FEBFFFF7FEBFFFF7FEBFFFF7FEBF2C
:1038D000FFF7FEBFFFF7FEBFFFF7FEBFFFF7FEBF1C
:1038E000FFF7FEBFFFF7FEBFFFF7FEBFFFF7FEBF0C
:1038F000FFF7FEBFFFF7FEBFFFF7FEBFFFF7FEBFFC
:10390000FFF7FEBFFFF7FEBFFFF7FEBFFFF7FEBFEB
:10391000FFF7FEBFFFF7FEBFFFF7FEBFFFF7FEBFDB
:10392000FFF7FEBFFFF7FEBFFFF7FEBFFFF7FEBFCB
:10393000FFF7FEBFFFF7FEBFFFF7FEBFFFF7FEBFBB
:10394000FFF7FEBFFFF7FEBFFFF7FEBFFFF7FEBFAB
:10395000FFF7FEBFFFF7FEBFFFF7FEBFFFF7FEBF9B
:10396000FFF7FEBFFFF7FEBFFFF7FEBFFFF7FEBF8B
:10397000FFF7FEBFFFF7FEBFFFF7FEBFFFF7FEBF7B
:0C398000FFF7FEBFFFF7FEBFFFF7FEBF22
:0400000508003809AE
:00000001FF
